:100000000C942D010C9455010C9455010C94550140
:100010000C9455010C9455010C9455010C94550108
:100020000C9455010C9455010C94F8090C94C608D5
:100030000C9455010C9455010C9455010C945501E8
:100040000C9455010C9455010C9455010C945501D8
:100050000C9455010C9455010C9455010C941A06FE
:100060000C9455010C94C5040C9408050C9455018E
:100070000C9455010C9455010C9455010C945501A8
:100080000C9455010C9455010C9455010C94550198
:100090000C9455010C9455010C9455010C94550188
:1000A0000C9455010C9455010C945501080B000259
:1000B0000202010009040000010202000005240000
:1000C0001001052401010104240206052406000193
:1000D0000705810310004009040100020A00000026
:1000E000070502024000000705830240000000C12E
:1000F0008081C112010002020000404123368000CD
:1001000001010200011201000200000040412336FB
:1001100080000101020001180341007200640075B3
:100120000069006E006F0020004C004C004300226C
:1001300003410072006400750069006E006F0020CA
:10014000004C0065006F006E006100720064006F7B
:10015000000403090400000000000000002A2B280E
:10016000000000000000000000000000000000008F
:1001700000000000002C9EB4A0A1A2A434A6A7A554
:10018000AE362D3738271E1F20212223242526B3E3
:1001900033B62EB7B89F8485868788898A8B8C8DE5
:1001A0008E8F909192939495969798999A9B9C9DF7
:1001B0002F3130A3AD350405060708090A0B0C0DD5
:1001C0000E0F101112131415161718191A1B1C1DD7
:1001D000AFB1B0B50009040200010300000009211D
:1001E00001010001226500070584034000010501AB
:1001F0000902A1010901A1008501050919012903CD
:10020000150025019503750181029501750581038E
:1002100005010930093109381581257F75089503D5
:100220008106C0C005010906A1018502050719E084
:1002300029E71500250175019508810295017508CA
:1002400081039506750815002565050719002965C0
:100250008100C0000104C405AC0B11241FBECFEF08
:10026000DAE0DEBFCDBF11E0A0E0B1E0E6ECF7E1FF
:1002700002C005900D92AA37B107D9F712E0AAE79C
:10028000B1E001C01D92AB3FB107E1F712E0CAE552
:10029000D2E004C02297FE010E94DD0BC435D107D5
:1002A000C9F70E9418040C94E10B0C940000809193
:1002B0007C0120917A0130917B01EDE7F1E0ACE720
:1002C000B1E002C091919D93AF014C57514042174C
:1002D0005307C4F32150310930937B0120937A01F5
:1002E0000895CF9382E392E00E942904892BC9F1FB
:1002F00082E392E00E945804823058F420917A01FF
:1003000030917B01F901E458FE4F80832F5F3F4F0E
:1003100024C0823031F582E392E00E942904892BC7
:10032000D1F382E392E00E945804C82F82E392E066
:100330000E942904892BD1F382E392E00E945804A1
:1003400020917A0130917B01F901E458FE4F92E04F
:100350009083C18382832D5F3F4F30937B01209335
:100360007A01CF9108950E94710181E020917A0174
:1003700030917B01232B09F480E0089560E875E259
:1003800080EE91E00E94000440E855E260E070E0F9
:1003900082E392E00C944305CF93DF930E94B30174
:1003A000882399F10E945701811103C06AE071E02E
:1003B00004C0813039F46BE171E080EE91E00E947D
:1003C0006502ECCF823051F70E945701D82F0E946E
:1003D0005701C82F6EE271E080EE91E00E94460264
:1003E0004AE050E06D2F80EE91E00E94E20265E469
:1003F00071E080EE91E00E9446024AE050E06C2FEE
:1004000080EE91E00E94E902C9CFDF91CF9108957B
:10041000CF92DF92EF92FF920F931F93CF93DF93D0
:100420006C01EB017A01E60EF71E00E010E00BC054
:100430006991D601ED91FC910190F081E02DC6010A
:100440000995080F191FCE15DF0591F7C801DF9137
:10045000CF911F910F91FF90EF90DF90CF90089573
:100460006115710581F0DB010D900020E9F7AD0108
:1004700041505109461B570BDC01ED91FC91028064
:10048000F381E02D099480E090E008950C9430020F
:10049000DC01ED91FC910190F081E02D09940F9326
:1004A0001F93CF93DF93EC016DE00E9448028C0113
:1004B0006AE0CE010E9448029C01200F311FC90151
:1004C000DF91CF911F910F9108950F931F93CF93B9
:1004D000DF93EC010E9430028C01CE010E944F029A
:1004E0009801280F391FC901DF91CF911F910F91FA
:1004F00008954F925F926F927F929F92AF92BF92B8
:10050000CF92DF92EF92FF920F931F93CF93DF93DF
:10051000CDB7DEB7A1970FB6F894DEBF0FBECDBF43
:100520005C016A017B01922E19A281E0821710F012
:100530008AE0982E8E010F5D1F4F492C512C612CA3
:10054000712CC701B601A30192010E94B90B8C2D39
:10055000929E80191124015011098A3014F4805D93
:1005600001C0895CF801808369017A01C114D1045A
:10057000E104F10431F7B801C5010E943002A196EF
:100580000FB6F894DEBF0FBECDBFDF91CF911F91A4
:100590000F91FF90EF90DF90CF90BF90AF909F9022
:1005A0007F906F905F904F9008952115310541F431
:1005B000DC01ED91FC910190F081E02D642F099414
:1005C0000C9479029A01462F50E060E070E00C94A0
:1005D000D5020F931F93CF93DF93EC019A01462F1F
:1005E00050E060E070E00E94D5028C01CE010E94D4
:1005F0004F029801280F391FC901DF91CF911F9138
:100600000F91089520912E0230912F028091300297
:1006100090913102281B390B2F733327C90108959C
:1006200020912E0230912F02809130029091310260
:100630002817390749F0E0913002F0913102E25178
:10064000FE4F208130E002C02FEF3FEFC901089537
:1006500020912E0230912F02809130029091310230
:1006600028173907B1F0E0913002F0913102E251E0
:10067000FE4F808120913002309131022F5F3F4F39
:100680002F7333273093310220933002282F30E02C
:1006900002C02FEF3FEFC90108950F931F93CF932F
:1006A000DF931F92CDB7DEB78C016983809107017C
:1006B000882369F041E050E0BE016F5F7F4F83E027
:1006C0000E94AA071816190614F49C0107C081E0BD
:1006D00090E0F8019383828320E030E0C9010F901D
:1006E000DF91CF911F910F91089583E00C94EE0953
:1006F000CF93DF9312C082E00E9478078F3F2FEFE5
:100700009207C9F0E0912E02F0912F02E251FE4FC4
:100710008083D0932F02C0932E02C0912E02D091DD
:100720002F022196CF73DD27809130029091310204
:10073000C817D90701F7DF91CF910895FC012081F7
:100740002E5F208342E450E06CEA70E080E80C9475
:100750004508FC0181819081913A59F4813209F078
:100760004BC047E050E060E071E080E00E94450847
:1007700045C0913209F040C0803239F467E070E042
:1007800080E091E00E94980839C0823209F034C0BC
:100790008281809307018091000190910101A091D5
:1007A0000201B0910301803B9440A105B10531F5F0
:1007B0008091070180FD12C087E797E790930108B9
:1007C000809300082BE088E190E00FB6F894A8959C
:1007D000809360000FBE2093600010C088E10FB6C8
:1007E000F89480936000109260000FBEA89510925C
:1007F00001081092000802C080E0089581E0089589
:1008000008951092E3011092E20188EE93E0A0E0D7
:10081000B0E08093E4019093E501A093E601B093EA
:10082000E7018EE491E09093E1018093E001089567
:100830000E94B40685EE92E00E94570A0E94BE0113
:10084000CFEFD4E00E94CC012097E1F30E94FF0497
:10085000F9CFFC0184859585FC01E05CFF4F208188
:100860003181FC01EE5BFF4F80819181281B390BA8
:100870002F733327C9010895FC0184859585FC01F8
:10088000E05CFF4F40815181FC01EE5BFF4F208116
:1008900031814217530741F00190F081E02DE80FBC
:1008A000F91F208130E002C02FEF3FEFC90108950A
:1008B000FC0184859585FC01E05CFF4F40815181FE
:1008C000FC01EE5BFF4F208131814217530781F01D
:1008D000A081B181A80FB91F8C91208131812F5F38
:1008E0003F4F2F73332731832083282F30E002C0FE
:1008F0002FEF3FEFC9010895FC0181A1882329F062
:10090000A489B5898C9186FFFBCF11A20895CF935E
:10091000DF93FC0126853785D901A05CBF4F8D91FF
:100920009C91119701968F739927E901CE5BDF4F58
:100930004881598184179507D9F30D90BC91A02D5A
:10094000A20FB31F6C93A685B785A05CBF4F11960D
:100950009C938E93A689B7892C9181E090E0078CB7
:1009600002C0880F991F0A94E2F7282B2C9381E08C
:1009700081A30488F589E02D80818064808381E0F3
:1009800090E0DF91CF91089508951F920F920FB6D6
:100990000F9211242F933F934F938F939F93EF9335
:1009A000FF938091C80082FD1CC04091CE008091D1
:1009B000D8029091D90201968F7399272091DA027B
:1009C0003091DB028217930771F0E091D802F09129
:1009D000D902E856FD4F40839093D9028093D80204
:1009E00002C08091CE00FF91EF919F918F914F9126
:1009F0003F912F910F900FBE0F901F90189582E39B
:100A000092E00E942904892B11F00C94C4040895EB
:100A10001F920F920FB60F9211242F933F938F9333
:100A20009F93EF93FF9320919402309195028091D0
:100A30009602909197022817390731F48091C900E6
:100A40008F7D8093C90014C0E0919602F0919702C7
:100A5000EC5AFD4F20818091960290919702019669
:100A60008F73992790939702809396022093CE00DC
:100A7000FF91EF919F918F913F912F910F900FBE1A
:100A80000F901F901895CF92DF92EF92FF92CF9325
:100A9000DF93EC016A017B01411581EE5807610586
:100AA0007105F9F0EC89FD8981E090E008A002C0B1
:100AB000880F991F0A94E2F7808360E079E08DE364
:100AC00090E0A70196010E94B90B2150310941091C
:100AD00051095695479537952795211580E1380797
:100AE00098F0EC89FD89108260E874E88EE190E06E
:100AF000A70196010E94B90B215031094109510902
:100B00005695479537952795E889F9893083EA897D
:100B1000FB89208319A2EE89FF89408181E090E062
:100B20009C010C8C02C0220F331F0A94E2F7422B67
:100B30004083EE89FF8940819C010D8C02C0220F09
:100B4000331F0A94E2F7422B4083EE89FF894081EC
:100B50009C010E8C02C0220F331F0A94E2F7422B35
:100B60004083EE89FF8920810F8C02C0880F991F76
:100B70000A94E2F7809582238083DF91CF91FF90E2
:100B8000EF90DF90CF9008951092350210923402CA
:100B900088EE93E0A0E0B0E08093360290933702B5
:100BA000A0933802B093390280E691E0909333022B
:100BB0008093320288E992E090933F0280933E0254
:100BC00084E592E090934102809340028DEC90E0A6
:100BD00090934302809342028CEC90E09093450204
:100BE0008093440288EC90E0909347028093460201
:100BF00089EC90E090934902809348028AEC90E05F
:100C000090934B0280934A028EEC90E090934D02B9
:100C100080934C0284E080934E0283E080934F02E5
:100C200087E08093500285E08093510281E08093B9
:100C3000520208951F920F920FB60F9211242F9314
:100C40003F938F939F93AF93BF938091DC029091DA
:100C5000DD02A091DE02B091DF023091E402232F89
:100C60002D5F2D3720F40196A11DB11D05C0232F46
:100C70002A570296A11DB11D2093E4028093DC0245
:100C80009093DD02A093DE02B093DF028091E00238
:100C90009091E102A091E202B091E3020196A11DC0
:100CA000B11D8093E0029093E102A093E202B09321
:100CB000E302BF91AF919F918F913F912F910F9040
:100CC0000FBE0F901F9018950F931F939FB7F89426
:100CD0000091E0021091E1022091E2023091E302E2
:100CE00086B5A89B06C08F3F21F00F5F1F4F2F4F87
:100CF0003F4F9FBF322F212F102F0027080F111DAC
:100D0000211D311D42E0000F111F221F331F4A9584
:100D1000D1F7B801C9011F910F910895CF92DF92C9
:100D2000EF92FF92CF93DF936B017C010E946406E8
:100D3000EB010EC00E9464066C1B7D0B683E734085
:100D400038F081E0C81AD108E108F108C851DC4F39
:100D5000C114D104E104F10469F7DF91CF91FF9050
:100D6000EF90DF90CF900895789484B5826084BD31
:100D700084B5816084BD85B5826085BD85B581609F
:100D800085BDEEE6F0E0808181608083E1E8F0E0FF
:100D90001082808182608083808181608083E0E82E
:100DA000F0E0808181608083E1E9F0E08081826011
:100DB0008083808181608083E0E9F0E080818160D0
:100DC0008083E1ECF0E080818460808380818260B8
:100DD0008083808181608083E3ECF0E080818160AA
:100DE0008083E0ECF0E0808182608083E2ECF0E0E0
:100DF000808181608083EAE7F0E080818460808385
:100E0000808182608083808181608083808180682E
:100E10008083089505C02091F100FC012193CF014A
:100E20006150C8F7289884E68093EC0208952FB7A4
:100E3000FC012083F89467706093E9000895CF93D4
:100E4000DF931F92CDB7DEB7682FCE0101960E94C7
:100E500017078091F20099819FBF0F90DF91CF918A
:100E60000895FF920F931F93CF93DF9300D0CDB7D8
:100E7000DEB7F62E8A019091EB029923A9F057FF75
:100E800016C012C028988093EC029091F1009193C3
:100E9000FE12F8CF4115510521F08091F200882310
:100EA000D1F089818FBF1BC04FEF5FEF18C0682F53
:100EB000CE0101967A830E9417078091F20090E09C
:100EC000A8017A81801791070CF4AC01EF2DF72F60
:100ED000F40E84E6DDCF8BE68093E800E2CFCA0112
:100EE0000F900F90DF91CF911F910F91FF90089578
:100EF000CF93DF931F92CDB7DEB741E050E0BE0144
:100F00006F5F7F4F0E943107019719F4298130E00C
:100F100002C02FEF3FEFC9010F90DF91CF910895ED
:100F2000CF93DF931F92CDB7DEB7682FCE01019626
:100F30000E9417078091E80085FF05C09091F2009C
:100F400080E4891B01C080E099819FBF0F90DF91F1
:100F5000CF9108956F927F928F929F92AF92BF929E
:100F6000CF92DF92EF92FF920F931F93CF93DF9375
:100F70001F92CDB7DEB7782EC42EB52E8091EB022E
:100F800081114CC02FEF3FEF64C0872D0E94900766
:100F9000682E811109C0DA94A9F361E070E080E065
:100FA00090E00E948E0647C0282F30E002171307FA
:100FB0000CF4602E06191109672DCE0101960E94CE
:100FC0001707992041F002C01092F1006A948FEF48
:100FD0006812FACF17C0862D77FC02C0F7010EC049
:100FE000970106C0F9012F5F3F4FE491E093F100B4
:100FF0008150C0F705C091919093F1008150D8F7CE
:10100000E60CF11C8091E80085FF20C00115110558
:1010100011F481101BC089818FBF0DC07B01042F8B
:10102000152F8AEFD82E90E2992E97202AE3A22E30
:1010300030E4832E87200115110509F0A6CF5D98B5
:1010400084E68093ED022C2D3B2D03C0A092E80096
:10105000E2CFC9010F90DF91CF911F910F91FF90C7
:10106000EF90DF90CF90BF90AF909F908F907F9048
:101070006F9008951092E9001092EA021092E9022E
:101080009093E8028093E7020895FF920F931F93D5
:10109000CF93DF93C42FD52FDB0160E070E0EEEF3C
:1010A000FE2E38C09D012F5F3F4F87FF04C0FD011A
:1010B000D901E49102C0EC91D9010091E9021091AB
:1010C000EA022091E7023091E80202171307B4F414
:1010D0009091E8009570E1F39091E80092FD1FC0B7
:1010E000E093F1002091E9023091EA022F5F3F4F37
:1010F0002F733327232B11F4F092E8002091E9029B
:101100003091EA022F5F3F4F3093EA022093E902C9
:101110006F5F7F4F6C177D0729F69A0102C02FEF92
:101120003FEFC901DF91CF911F910F91FF9008957B
:101130001F93CF93DF931F92CDB7DEB7162F209169
:10114000E80022FFFCCF612F79830E940A078BEF12
:101150008093E800812F7981972F0F90DF91CF91B5
:101160001F910895CF93DF931F92CDB7DEB71982F9
:10117000CE0101960E949E03CE0101960E94940A20
:10118000898190E00F90DF91CF9108951F920F9287
:101190000FB60F921124EF92FF920F931F932F938C
:1011A0003F934F935F936F937F938F939F93AF93EF
:1011B000BF93EF93FF93CF93DF93CDB7DEB76297E3
:1011C000DEBFCDBF1092E9008091E80083FFE9C047
:1011D00068E0CE010A960E940A0782EF8093E80039
:1011E0009A8597FF05C08091E80080FFFCCF03C07F
:1011F0008EEF8093E800892F807609F0B7C08B8549
:10120000811105C01092F1001092F100C3C081302D
:1012100009F4C0C0833009F4BDC0853049F4809121
:10122000E80080FFFCCF8C8580688093E300B2C02B
:10123000863009F073C02D85E888F988223071F571
:1012400080E090E02A8B0E943A080E94B20899E060
:101250008E010F5F1F4FF801392F11923A95E9F770
:1012600099832A892A8391E09E8390E898879AEF50
:1012700099872091E9023091EA02275F3F4F3C8332
:101280002B838D83C7010E943A0849E050E0B801E2
:1012900080E00E9445080E94B2087CC0C7012A8BEA
:1012A0000E943A082A89223241F482E290E00E94A8
:1012B0009F0A892B09F06EC071C0213071F48889B2
:1012C0009989089719F481E08093E6028091E602FB
:1012D000882389F063EF70E016C0233009F05EC008
:1012E0008C85882359F0823061F0813009F056C036
:1012F00067E171E008C065E071E005C061E571E09B
:1013000002C06FE271E06115710509F447C0FB018D
:10131000449150E080E80E9445083CC0873009F4C1
:101320003DC0883021F481E08093F10033C08930E2
:1013300089F5937099F5EFEEF0E081E021E096E316
:101340008093E9002093EB0034913093EC0090936C
:10135000ED008F5F3196853099F78EE78093EA0034
:101360001092EA008C858093EB0214C088899989D9
:101370000E943A088E85811105C0CE010A960E940E
:10138000A90306C0823051F4CE010A960E94C70A12
:10139000882321F08EEF8093E80003C081E28093E0
:1013A000EB0062960FB6F894DEBF0FBECDBFDF91A3
:1013B000CF91FF91EF91BF91AF919F918F917F91CD
:1013C0006F915F914F913F912F911F910F91FF90DE
:1013D000EF900F900FBE0F901F9018958093E9002B
:1013E0008091F200882319F08AE38093E800089541
:1013F0001F920F920FB60F9211242F933F934F938A
:101400005F936F937F938F939F93AF93BF93EF936C
:10141000FF938091E1001092E10083FF0FC01092D2
:10142000E90091E09093EB001092EC0092E390932E
:10143000ED001092EB0298E09093F00082FF26C03E
:1014400083E00E94EE0982E00E941F07882321F0BA
:1014500080EE91E00E9478038091ED02882339F0BC
:101460008091ED0281508093ED02882361F080919C
:10147000EC02882359F08091EC0281508093EC02B9
:10148000882319F003C05D9AF2CF289AFF91EF915B
:10149000BF91AF919F918F917F916F915F914F918C
:1014A0003F912F910F900FBE0F901F9018951092A3
:1014B000EB0281E08093D70080EA8093D80082E13C
:1014C00089BD09B400FEFDCF61E070E080E090E0EE
:1014D0000E948E0680E98093D8008CE08093E20021
:1014E0001092E000559A209A0895FF920F931F934F
:1014F000CF93DF93EC01F62EE881F9810480F5812A
:10150000E02D09958C01E881F9810680F781E02DB5
:101510006F2DCE01099598013327C901DF91CF9135
:101520001F910F91FF900895FC0120812F5F208370
:1015300049E150E065ED71E080E80C94450845E62E
:1015400050E06EEE71E080E80C944508EF92FF9257
:101550000F931F93CF93DF931F92CDB7DEB789838D
:101560008B017A0141E050E0BE016F5F7F4F84E064
:101570000E94AA07A701B80184E40E94AA070F905D
:10158000DF91CF911F910F91FF90EF900895FC0193
:1015900091818081813A31F481E0913091F09330F2
:1015A00091F010C0813271F49B3021F482818093DC
:1015B000090105C09A3031F482818093080181E0ED
:1015C0000895089580E0089548E050E082E00C948A
:1015D000A60AFC01168217821086118612861386CF
:1015E0001482BC016C5F7F4F0C94E40AE62F6838CC
:1015F00010F0E85824C0F0E067FF12C0E058F1098D
:1016000021E030E001C0220FEA95EAF72095DC01E5
:1016100014963C911497322314963C93E0E00FC04B
:10162000EB5AFE4FE491EE2329F1E7FF08C0DC01FD
:1016300014962C9114972D7F14962C93EF7720E01D
:1016400030E0EE2351F0DC01A20FB31F16964C914F
:1016500016974E1302C016961C922F5F3F4F2630EE
:10166000310579F7BC016C5F7F4F0E94E40A21E0ED
:1016700030E002C020E030E0C9010895CF93DF934D
:10168000DC01E62F683810F0E85824C0F0E067FF6E
:1016900011C0E058F10981E090E001C0880FEA959F
:1016A000EAF714969C911497982B14969C93149790
:1016B000E0E010C0EB5AFE4FE491E11101C040C0E0
:1016C000E7FF08C014968C911497826014968C934F
:1016D0001497EF7716968C9116978E1741F11796FF
:1016E0008C9117978E1719F118968C9118978E1761
:1016F000F1F019968C9119978E17C9F01A968C9162
:101700001A978E17A1F01B968C911B978E1779F064
:1017100080E090E0ED01C80FD91F2E81211102C099
:10172000EE8305C0019686309105A1F709C0BD0181
:101730006C5F7F4FCD010E94E40A21E030E008C0D9
:1017400081E090E013969C938E93129720E030E016
:10175000C901DF91CF9108951092FA021092F1021F
:101760001092F00280E791E09093EF028093EE02F6
:101770000895A1E21A2EAA1BBB1BFD010DC0AA1FD2
:10178000BB1FEE1FFF1FA217B307E407F50720F0EA
:10179000A21BB30BE40BF50B661F771F881F991F65
:1017A0001A9469F760957095809590959B01AC01AE
:1017B000BD01CF010895EE0FFF1F0590F491E02DBC
:0617C0000994F894FFCF2C
:1017C60000E100000000000001014D6F746F7273AC
:1017D60020616374697661746564004D6F746F721D
:1017E6007320646561637469766174656400436837
:1017F600616E6765207370656564206F66206D6F26
:10180600746F72200020746F2000000000004D03EA
:101816000802020328031003750378030000000082
:1018260087040802290458043C047C0400000000D4
:0A183600750A08023E0BF60AE90AE3
:00000001FF
