:100000000C9462000C948A000C948A000C948A0070
:100010000C948A000C948A000C948A000C948A0038
:100020000C948A000C948A000C948A000C948A0028
:100030000C948A000C948A000C948A000C948A0018
:100040000C94B9040C948A000C942C010C947A0141
:100050000C948A000C948A000C948A000C948A00F8
:100060000C948A000C948A000000000024002700F1
:100070002A0000000000250028002B0000000000DE
:1000800023002600290004040404040404040202DA
:100090000202020203030303030301020408102007
:1000A0004080010204081020010204081020000012
:1000B0000007000201000003040600000000000029
:1000C0000000E60211241FBECFEFD8E0DEBFCDBF97
:1000D00011E0A0E0B1E0EEE4FEE002C005900D9278
:1000E000A233B107D9F711E0A2E3B1E001C01D923C
:1000F000A33FB107E1F710E0C4ECD0E004C02297C1
:10010000FE010E942107C23CD107C9F70E943C03AF
:100110000C9425070C940000EF92FF920F931F930D
:10012000CF93DF9381E060E00E944B03C0E0D0E01A
:1001300024C081E00E94970462E070E00E94D6062D
:10014000882777FD8095982F609332017093330153
:10015000809334019093350120913E0130913F010D
:10016000260F371F30933F0120933E016AE070E075
:1001700080E090E00E940105219660911E0170913F
:100180001F01C617D707ACF280913E0190913F0145
:100190000E94D6067B010027F7FC0095102FE09205
:1001A0003601F09237010093380110933901C801EC
:1001B000B7010E94C8052CE53FE842E250E40E94E6
:1001C00054060E94950560933A0170933B01809319
:1001D0003C0190933D0188EC91E0B801A7012AE031
:1001E00030E00E94540488EC91E060E071E00E94ED
:1001F000940440913A0150913B0160913C0170910F
:100200003D0188EC91E02AE030E00E94540488EC43
:1002100091E065E071E00E94940488EC91E00E9416
:10022000B40310923F0110923E0164EF71E080E050
:1002300090E00E940105DF91CF911F910F91FF90F7
:10024000EF90089588EC91E040E855E260E070E0BE
:100250000E94B501089508951F920F920FB60F9254
:1002600011242F933F934F938F939F93EF93FF937B
:100270008091C00082FD1DC04091C6002091800188
:10028000309181012F5F3F4F2F7330708091820139
:10029000909183012817390771F0E0918001F09166
:1002A0008101E05CFE4F4083309381012093800107
:1002B00002C08091C600FF91EF919F918F914F9165
:1002C0003F912F910F900FBE0F901F901895E091C6
:1002D000D401F091D501E05CFF4F81919191208193
:1002E0003181821B930B8F739070892B11F00E94C8
:1002F0002B0108951F920F920FB60F9211242F9386
:100300003F938F939F93EF93FF932091C40130917C
:10031000C5018091C6019091C7012817390731F4B2
:100320008091C1008F7D8093C10014C0E091C6010F
:10033000F091C701EC57FE4F20818091C60190914A
:10034000C70101968F7390709093C7018093C60187
:100350002093C600FF91EF919F918F913F912F9134
:100360000F900FBE0F901F901895AF92BF92DF9223
:10037000EF92FF920F931F93CF93DF93EC017A01DB
:100380008B01DD24403081EE580780E0680780E073
:10039000780711F0DD24D39491E0A92EB12CEC89DB
:1003A000FD89DD2069F0C50108A002C0880F991FF2
:1003B0000A94E2F7808360E079E08DE390E005C085
:1003C000108260E874E88EE190E0A80197010E9435
:1003D000E9062150304040405040569547953795AA
:1003E000279580E12030380720F0DD2011F0DD2452
:1003F000D6CFE889F9893083EA89FB89208319A25D
:10040000EE89FF89408121E030E0C9010C8C02C0F7
:10041000880F991F0A94E2F7482B4083EE89FF89E1
:100420004081C9010D8C02C0880F991F0A94E2F720
:10043000482B4083EE89FF894081C9010E8C02C0A0
:10044000880F991F0A94E2F7482B4083EE89FF89B1
:1004500080810F8C02C0220F331F0A94E2F720958F
:1004600028232083DF91CF911F910F91FF90EF9070
:10047000DF90BF90AF900895DC011C96ED91FC9148
:100480001D97E05CFF4F2191319180819181281B64
:10049000390B2F733070C9010895DC011C96ED9162
:1004A000FC911D97E05CFF4F20813181E054F040CA
:1004B000DF01AE5BBF4F8D919C91119728173907D3
:1004C00019F42FEF3FEF07C08D919C91E80FF91FB2
:1004D0008081282F30E0C9010895DC011C96ED9140
:1004E000FC911D97E05CFF4F20813181E054F0408A
:1004F000DF01AE5BBF4F8D919C9111972817390793
:1005000019F42FEF3FEF10C08D919C911197E80FD8
:10051000F91F20818D919C91119701968F73907096
:1005200011969C938E9330E0C9010895DC01919659
:100530008C919197882339F05496ED91FC915597C1
:10054000808186FFF9CF91961C920895CF93DF9317
:10055000EC01EE85FF85E05CFF4F20813181E054A6
:10056000F0402F5F3F4F2F733070DF01AE5BBF4F06
:100570008D919C91119728173907D1F3E05CFF4FBB
:1005800080819181E054F040E80FF91F6083EE858F
:10059000FF85E05CFF4F31832083EE89FF89208156
:1005A00081E090E00F8C02C0880F991F0A94E2F757
:1005B000282B208381E089A3EC89FD8980818064D8
:1005C000808381E090E0DF91CF9108951092CB017C
:1005D0001092CA0188EE93E0A0E0B0E08093CC01D5
:1005E0009093CD01A093CE01B093CF0185E291E02D
:1005F0009093C9018093C80180E491E09093D50164
:100600008093D40184E891E09093D7018093D60140
:1006100085EC90E09093D9018093D80184EC90E030
:100620009093DB018093DA0180EC90E09093DD0100
:100630008093DC0181EC90E09093DF018093DE01F8
:1006400082EC90E09093E1018093E00186EC90E0F1
:100650009093E3018093E20184E08093E40183E0DE
:100660008093E50187E08093E60185E08093E701D0
:1006700081E08093E8010895CF93DF930E945A05AB
:100680000E942201C7E6D1E00E948C002097E1F38E
:100690000E946701F9CFCF93DF93482F50E0CA0142
:1006A00086569F4FFC0134914A575F4FFA0184915F
:1006B000882369F190E0880F991FFC01E859FF4FEA
:1006C000A591B491FC01EE58FF4FC591D4916623DA
:1006D00051F42FB7F8948C91932F909589238C9394
:1006E000888189230BC0623061F42FB7F8948C9114
:1006F000932F909589238C938881832B88832FBF98
:1007000006C09FB7F8948C91832B8C939FBFDF9189
:10071000CF910895CF92DF92EF92FF920F931F93A4
:10072000CF93DF937C016B018A01C0E0D0E00FC062
:10073000D6016D916D01D701ED91FC910190F08191
:10074000E02DC7010995C80FD91F015010400115B0
:10075000110571F7CE01DF91CF911F910F91FF909D
:10076000EF90DF90CF900895EF92FF920F931F9339
:100770008C01DC01ED91FC910190F081E02D6DE0A8
:1007800009957C01D801ED91FC910190F081E02D5B
:10079000C8016AE009959C012E0D3F1DC9011F91FA
:1007A0000F91FF90EF900895CF93DF93EC016115C7
:1007B000710519F420E030E00FC0DB010D9000203E
:1007C000E9F71197A61BB70BE881F9810280F38145
:1007D000E02DAD0109959C01C901DF91CF910895EC
:1007E0004F925F927F928F929F92AF92BF92CF92E1
:1007F000DF92EF92FF920F931F93DF93CF93CDB7CA
:10080000DEB7A1970FB6F894DEBF0FBECDBF2C01A7
:10081000742ECB01223008F42AE019A231E2C32E53
:10082000D12CCC0EDD1E822E9924AA24BB24672D48
:10083000752FA50194010E94E90679018A01C8017A
:10084000B701A50194010E94B706472D461B0894E5
:10085000C108D1084A3014F4405D01C0495CF6017A
:100860004083E114F1040105110521F07E2C5F2D78
:10087000C801DDCFC201B6010E94D403A1960FB614
:10088000F894DEBF0FBECDBFCF91DF911F910F91C6
:10089000FF90EF90DF90CF90BF90AF909F908F90A0
:1008A0007F905F904F900895CF92DF92EF92FF92EA
:1008B0000F931F93CF93DF93EC016A017B01211506
:1008C000310541F4E881F9810190F081E02D642F38
:1008D00009951FC02A303105D1F477FF17C0E88190
:1008E000F9810190F081E02D6DE209958C0144279A
:1008F0005527BA014C195D096E097F09CE012AE01E
:100900000E94F0039801280F391F04C02AE00E94BA
:10091000F0039C01C901DF91CF911F910F91FF90CE
:10092000EF90DF90CF9008950E94D4030895982F00
:100930008E3008F09E509770809120018295880F2C
:10094000880F807C892B80937C0080917A00806462
:1009500080937A0080917A0086FDFCCF2091780008
:1009600040917900942F80E030E0282B392BC90189
:1009700008951F920F920FB60F9211242F933F9359
:100980008F939F93AF93BF938091EE019091EF016E
:10099000A091F001B091F1013091F2010196A11DF9
:1009A000B11D232F2D5F2D3720F02D570196A11D4E
:1009B000B11D2093F2018093EE019093EF01A0937B
:1009C000F001B093F1018091EA019091EB01A091C7
:1009D000EC01B091ED010196A11DB11D8093EA01DA
:1009E0009093EB01A093EC01B093ED01BF91AF9117
:1009F0009F918F913F912F910F900FBE0F901F905D
:100A000018959B01AC017FB7F8948091EA01909111
:100A1000EB01A091EC01B091ED0166B5A89B05C07A
:100A20006F3F19F00196A11DB11D7FBFBA2FA92FED
:100A3000982F8827860F911DA11DB11D62E0880F98
:100A4000991FAA1FBB1F6A95D1F7BC012DC0FFB724
:100A5000F8948091EA019091EB01A091EC01B091A2
:100A6000ED01E6B5A89B05C0EF3F19F00196A11D69
:100A7000B11DFFBFBA2FA92F982F88278E0F911D68
:100A8000A11DB11DE2E0880F991FAA1FBB1FEA95A7
:100A9000D1F7861B970B885E9340C8F221503040F7
:100AA0004040504068517C4F2115310541055105AA
:100AB00071F60895789484B5826084BD84B58160B0
:100AC00084BD85B5826085BD85B5816085BDEEE656
:100AD000F0E0808181608083E1E8F0E01082808135
:100AE00082608083808181608083E0E8F0E08081A3
:100AF00081608083E1EBF0E0808184608083E0EBC3
:100B0000F0E0808181608083EAE7F0E080818460AA
:100B10008083808182608083808181608083808106
:100B2000806880831092C100089504D06894B11148
:100B3000B5C0089598D088F09F5790F0B92F9927A5
:100B4000B751A0F0D1F0660F771F881F991F1AF0D8
:100B5000BA95C9F712C0B13081F09FD0B1E00895C5
:100B60009CC0672F782F8827B85F39F0B93FCCF346
:100B7000869577956795B395D9F73EF490958095CE
:100B8000709561957F4F8F4F9F4F0895E89409C0EE
:100B900097FB3EF490958095709561957F4F8F4FB0
:100BA0009F4F9923A9F0F92F96E9BB279395F695C6
:100BB000879577956795B795F111F8CFFAF4BB0F44
:100BC00011F460FF1BC06F5F7F4F8F4F9F4F16C0A8
:100BD000882311F096E911C0772321F09EE8872F32
:100BE000762F05C0662371F096E8862F70E060E0EE
:100BF0002AF09A95660F771F881FDAF7880F969567
:100C0000879597F9089597F99F6780E870E060E00D
:100C100008959FEF80EC089500240A941616170695
:100C200018060906089500240A94121613061406DD
:100C300005060895092E0394000C11F4882352F040
:100C4000BB0F40F4BF2B11F460FF04C06F5F7F4FF8
:100C50008F4F9F4F089557FD9058440F551F59F0DF
:100C60005F3F71F04795880F97FB991F61F09F3F99
:100C700079F087950895121613061406551FF2CFC2
:100C80004695F1DF08C0161617061806991FF1CF12
:100C900086957105610508940895E894BB27662739
:100CA0007727CB0197F908950BD0C4CFB5DF28F093
:100CB000BADF18F0952309F0A6CFABCF1124EECF01
:100CC000CADFA0F3959FD1F3950F50E0551F629FA7
:100CD000F001729FBB27F00DB11D639FAA27F00D95
:100CE000B11DAA1F649F6627B00DA11D661F829FBC
:100CF0002227B00DA11D621F739FB00DA11D621FA1
:100D0000839FA00D611D221F749F3327A00D611DBD
:100D1000231F849F600D211D822F762F6A2F11249F
:100D20009F5750408AF0E1F088234AF0EE0FFF1FF2
:100D3000BB1F661F771F881F91505040A9F79E3F29
:100D4000510570F060CFAACF5F3FECF3983EDCF323
:100D5000869577956795B795F795E7959F5FC1F766
:100D6000FE2B880F911D9695879597F90895629FA0
:100D7000D001739FF001829FE00DF11D649FE00D93
:100D8000F11D929FF00D839FF00D749FF00D659FF4
:100D9000F00D9927729FB00DE11DF91F639FB00DF3
:100DA000E11DF91FBD01CF011124089597FB092E04
:100DB00007260AD077FD04D02ED006D000201AF4E2
:100DC000709561957F4F0895F6F7909581959F4FA7
:100DD0000895A1E21A2EAA1BBB1BFD010DC0AA1F7C
:100DE000BB1FEE1FFF1FA217B307E407F50720F094
:100DF000A21BB30BE40BF50B661F771F881F991F0F
:100E00001A9469F760957095809590959B01AC0157
:100E1000BD01CF010895AA1BBB1B51E107C0AA1F4A
:100E2000BB1FA617B70710F0A61BB70B881F991F8B
:100E30005A95A9F780959095BC01CD010895EE0FC4
:0E0E4000FF1F0590F491E02D0994F894FFCF68
:100E4E00696E2C2000636961736A646F66696A73E8
:100E5E0061646F666973616A646F696A6D0004002C
:100E6E000100000000A6028A033C026D024D0296AC
:020E7E00020070
:00000001FF
